{
  "_format": "hh-sol-artifact-1",
  "contractName": "BondingCurveManager",
  "sourceName": "contracts/BondingCurveManager.sol",
  "abi": [
    {
      "inputs": [
        {
          "internalType": "uint256",
          "name": "_initialVirtualLiquidity",
          "type": "uint256"
        },
        {
          "internalType": "uint256",
          "name": "_targetMarketCap",
          "type": "uint256"
        },
        {
          "internalType": "uint256",
          "name": "_creatorFeeBps",
          "type": "uint256"
        },
        {
          "internalType": "uint256",
          "name": "_protocolFeeBps",
          "type": "uint256"
        },
        {
          "internalType": "address",
          "name": "_weth",
          "type": "address"
        },
        {
          "internalType": "address",
          "name": "_dexRouter",
          "type": "address"
        }
      ],
      "stateMutability": "nonpayable",
      "type": "constructor"
    },
    {
      "inputs": [],
      "name": "ExceedsMaxPurchase",
      "type": "error"
    },
    {
      "inputs": [],
      "name": "FailedCall",
      "type": "error"
    },
    {
      "inputs": [],
      "name": "FeeTooHigh",
      "type": "error"
    },
    {
      "inputs": [
        {
          "internalType": "uint256",
          "name": "balance",
          "type": "uint256"
        },
        {
          "internalType": "uint256",
          "name": "needed",
          "type": "uint256"
        }
      ],
      "name": "InsufficientBalance",
      "type": "error"
    },
    {
      "inputs": [],
      "name": "InsufficientCreatorBalance",
      "type": "error"
    },
    {
      "inputs": [],
      "name": "InsufficientPayment",
      "type": "error"
    },
    {
      "inputs": [],
      "name": "InvalidAmount",
      "type": "error"
    },
    {
      "inputs": [],
      "name": "InvalidTokenAddress",
      "type": "error"
    },
    {
      "inputs": [],
      "name": "LiquidityAdditionFailed",
      "type": "error"
    },
    {
      "inputs": [
        {
          "internalType": "address",
          "name": "owner",
          "type": "address"
        }
      ],
      "name": "OwnableInvalidOwner",
      "type": "error"
    },
    {
      "inputs": [
        {
          "internalType": "address",
          "name": "account",
          "type": "address"
        }
      ],
      "name": "OwnableUnauthorizedAccount",
      "type": "error"
    },
    {
      "inputs": [],
      "name": "ReentrancyGuardReentrantCall",
      "type": "error"
    },
    {
      "inputs": [],
      "name": "TokenGraduated",
      "type": "error"
    },
    {
      "inputs": [],
      "name": "TokenNotGraduated",
      "type": "error"
    },
    {
      "inputs": [],
      "name": "Unauthorized",
      "type": "error"
    },
    {
      "inputs": [],
      "name": "ZeroAddress",
      "type": "error"
    },
    {
      "anonymous": false,
      "inputs": [
        {
          "indexed": true,
          "internalType": "address",
          "name": "creator",
          "type": "address"
        },
        {
          "indexed": false,
          "internalType": "uint256",
          "name": "oldBalance",
          "type": "uint256"
        },
        {
          "indexed": false,
          "internalType": "uint256",
          "name": "newBalance",
          "type": "uint256"
        }
      ],
      "name": "CreatorBalanceUpdated",
      "type": "event"
    },
    {
      "anonymous": false,
      "inputs": [
        {
          "indexed": false,
          "internalType": "uint256",
          "name": "oldFee",
          "type": "uint256"
        },
        {
          "indexed": false,
          "internalType": "uint256",
          "name": "newFee",
          "type": "uint256"
        }
      ],
      "name": "CreatorFeeUpdated",
      "type": "event"
    },
    {
      "anonymous": false,
      "inputs": [
        {
          "indexed": true,
          "internalType": "address",
          "name": "creator",
          "type": "address"
        },
        {
          "indexed": false,
          "internalType": "uint256",
          "name": "amount",
          "type": "uint256"
        }
      ],
      "name": "CreatorFeesWithdrawn",
      "type": "event"
    },
    {
      "anonymous": false,
      "inputs": [
        {
          "indexed": true,
          "internalType": "address",
          "name": "oldRouter",
          "type": "address"
        },
        {
          "indexed": true,
          "internalType": "address",
          "name": "newRouter",
          "type": "address"
        }
      ],
      "name": "DexRouterUpdated",
      "type": "event"
    },
    {
      "anonymous": false,
      "inputs": [
        {
          "indexed": true,
          "internalType": "address",
          "name": "token",
          "type": "address"
        },
        {
          "indexed": false,
          "internalType": "uint256",
          "name": "finalSupply",
          "type": "uint256"
        },
        {
          "indexed": false,
          "internalType": "uint256",
          "name": "liquidityAdded",
          "type": "uint256"
        }
      ],
      "name": "GraduationEvent",
      "type": "event"
    },
    {
      "anonymous": false,
      "inputs": [
        {
          "indexed": true,
          "internalType": "address",
          "name": "previousOwner",
          "type": "address"
        },
        {
          "indexed": true,
          "internalType": "address",
          "name": "newOwner",
          "type": "address"
        }
      ],
      "name": "OwnershipTransferred",
      "type": "event"
    },
    {
      "anonymous": false,
      "inputs": [
        {
          "indexed": false,
          "internalType": "uint256",
          "name": "oldFee",
          "type": "uint256"
        },
        {
          "indexed": false,
          "internalType": "uint256",
          "name": "newFee",
          "type": "uint256"
        }
      ],
      "name": "ProtocolFeeUpdated",
      "type": "event"
    },
    {
      "anonymous": false,
      "inputs": [
        {
          "indexed": true,
          "internalType": "address",
          "name": "to",
          "type": "address"
        },
        {
          "indexed": false,
          "internalType": "uint256",
          "name": "amount",
          "type": "uint256"
        }
      ],
      "name": "ProtocolFeesWithdrawn",
      "type": "event"
    },
    {
      "anonymous": false,
      "inputs": [
        {
          "indexed": true,
          "internalType": "address",
          "name": "token",
          "type": "address"
        },
        {
          "indexed": false,
          "internalType": "uint256",
          "name": "oldAmount",
          "type": "uint256"
        },
        {
          "indexed": false,
          "internalType": "uint256",
          "name": "newAmount",
          "type": "uint256"
        }
      ],
      "name": "RaisedAmountUpdated",
      "type": "event"
    },
    {
      "anonymous": false,
      "inputs": [
        {
          "indexed": true,
          "internalType": "address",
          "name": "token",
          "type": "address"
        },
        {
          "indexed": true,
          "internalType": "address",
          "name": "creator",
          "type": "address"
        },
        {
          "indexed": false,
          "internalType": "string",
          "name": "name",
          "type": "string"
        },
        {
          "indexed": false,
          "internalType": "string",
          "name": "symbol",
          "type": "string"
        },
        {
          "indexed": false,
          "internalType": "uint256",
          "name": "initialSupply",
          "type": "uint256"
        },
        {
          "indexed": false,
          "internalType": "uint256",
          "name": "creationFee",
          "type": "uint256"
        }
      ],
      "name": "TokenCreated",
      "type": "event"
    },
    {
      "anonymous": false,
      "inputs": [
        {
          "indexed": true,
          "internalType": "address",
          "name": "token",
          "type": "address"
        },
        {
          "indexed": true,
          "internalType": "address",
          "name": "buyer",
          "type": "address"
        },
        {
          "indexed": false,
          "internalType": "uint256",
          "name": "amount",
          "type": "uint256"
        },
        {
          "indexed": false,
          "internalType": "uint256",
          "name": "cost",
          "type": "uint256"
        },
        {
          "indexed": false,
          "internalType": "uint256",
          "name": "creatorFee",
          "type": "uint256"
        },
        {
          "indexed": false,
          "internalType": "uint256",
          "name": "protocolFee",
          "type": "uint256"
        }
      ],
      "name": "TokensBought",
      "type": "event"
    },
    {
      "anonymous": false,
      "inputs": [
        {
          "indexed": true,
          "internalType": "address",
          "name": "token",
          "type": "address"
        },
        {
          "indexed": true,
          "internalType": "address",
          "name": "seller",
          "type": "address"
        },
        {
          "indexed": false,
          "internalType": "uint256",
          "name": "amount",
          "type": "uint256"
        },
        {
          "indexed": false,
          "internalType": "uint256",
          "name": "refund",
          "type": "uint256"
        },
        {
          "indexed": false,
          "internalType": "uint256",
          "name": "creatorFee",
          "type": "uint256"
        },
        {
          "indexed": false,
          "internalType": "uint256",
          "name": "protocolFee",
          "type": "uint256"
        }
      ],
      "name": "TokensSold",
      "type": "event"
    },
    {
      "inputs": [],
      "name": "INITIAL_VIRTUAL_LIQUIDITY",
      "outputs": [
        {
          "internalType": "uint256",
          "name": "",
          "type": "uint256"
        }
      ],
      "stateMutability": "view",
      "type": "function"
    },
    {
      "inputs": [],
      "name": "MAX_PURCHASE",
      "outputs": [
        {
          "internalType": "uint256",
          "name": "",
          "type": "uint256"
        }
      ],
      "stateMutability": "view",
      "type": "function"
    },
    {
      "inputs": [],
      "name": "TARGET_MARKET_CAP",
      "outputs": [
        {
          "internalType": "uint256",
          "name": "",
          "type": "uint256"
        }
      ],
      "stateMutability": "view",
      "type": "function"
    },
    {
      "inputs": [],
      "name": "TOKEN_CREATION_FEE",
      "outputs": [
        {
          "internalType": "uint256",
          "name": "",
          "type": "uint256"
        }
      ],
      "stateMutability": "view",
      "type": "function"
    },
    {
      "inputs": [],
      "name": "UNISWAP_FACTORY",
      "outputs": [
        {
          "internalType": "address",
          "name": "",
          "type": "address"
        }
      ],
      "stateMutability": "view",
      "type": "function"
    },
    {
      "inputs": [],
      "name": "UNISWAP_ROUTER",
      "outputs": [
        {
          "internalType": "address",
          "name": "",
          "type": "address"
        }
      ],
      "stateMutability": "view",
      "type": "function"
    },
    {
      "inputs": [],
      "name": "WETH",
      "outputs": [
        {
          "internalType": "address",
          "name": "",
          "type": "address"
        }
      ],
      "stateMutability": "view",
      "type": "function"
    },
    {
      "inputs": [],
      "name": "WNX",
      "outputs": [
        {
          "internalType": "address",
          "name": "",
          "type": "address"
        }
      ],
      "stateMutability": "view",
      "type": "function"
    },
    {
      "inputs": [
        {
          "internalType": "address",
          "name": "tokenAddress",
          "type": "address"
        },
        {
          "internalType": "uint256",
          "name": "amountTokenMin",
          "type": "uint256"
        },
        {
          "internalType": "uint256",
          "name": "amountETHMin",
          "type": "uint256"
        }
      ],
      "name": "addLiquidity",
      "outputs": [],
      "stateMutability": "payable",
      "type": "function"
    },
    {
      "inputs": [
        {
          "internalType": "address",
          "name": "tokenAddress",
          "type": "address"
        },
        {
          "internalType": "uint256",
          "name": "amount",
          "type": "uint256"
        }
      ],
      "name": "buy",
      "outputs": [],
      "stateMutability": "payable",
      "type": "function"
    },
    {
      "inputs": [
        {
          "internalType": "uint256",
          "name": "currentSupply",
          "type": "uint256"
        },
        {
          "internalType": "uint256",
          "name": "amount",
          "type": "uint256"
        }
      ],
      "name": "calculateBuyCost",
      "outputs": [
        {
          "internalType": "uint256",
          "name": "cost",
          "type": "uint256"
        }
      ],
      "stateMutability": "view",
      "type": "function"
    },
    {
      "inputs": [
        {
          "internalType": "address",
          "name": "tokenAddress",
          "type": "address"
        }
      ],
      "name": "calculateMarketCap",
      "outputs": [
        {
          "internalType": "uint256",
          "name": "marketCap",
          "type": "uint256"
        }
      ],
      "stateMutability": "view",
      "type": "function"
    },
    {
      "inputs": [
        {
          "internalType": "uint256",
          "name": "currentSupply",
          "type": "uint256"
        },
        {
          "internalType": "uint256",
          "name": "amount",
          "type": "uint256"
        }
      ],
      "name": "calculateSellRefund",
      "outputs": [
        {
          "internalType": "uint256",
          "name": "refund",
          "type": "uint256"
        }
      ],
      "stateMutability": "view",
      "type": "function"
    },
    {
      "inputs": [
        {
          "internalType": "string",
          "name": "name",
          "type": "string"
        },
        {
          "internalType": "string",
          "name": "symbol",
          "type": "string"
        }
      ],
      "name": "createToken",
      "outputs": [
        {
          "internalType": "address",
          "name": "tokenAddress",
          "type": "address"
        }
      ],
      "stateMutability": "payable",
      "type": "function"
    },
    {
      "inputs": [
        {
          "internalType": "address",
          "name": "",
          "type": "address"
        }
      ],
      "name": "creatorBalances",
      "outputs": [
        {
          "internalType": "uint256",
          "name": "",
          "type": "uint256"
        }
      ],
      "stateMutability": "view",
      "type": "function"
    },
    {
      "inputs": [],
      "name": "creatorFeeBps",
      "outputs": [
        {
          "internalType": "uint256",
          "name": "",
          "type": "uint256"
        }
      ],
      "stateMutability": "view",
      "type": "function"
    },
    {
      "inputs": [],
      "name": "dexRouter",
      "outputs": [
        {
          "internalType": "address",
          "name": "",
          "type": "address"
        }
      ],
      "stateMutability": "view",
      "type": "function"
    },
    {
      "inputs": [],
      "name": "getAllTokens",
      "outputs": [
        {
          "internalType": "address[]",
          "name": "addresses",
          "type": "address[]"
        }
      ],
      "stateMutability": "view",
      "type": "function"
    },
    {
      "inputs": [
        {
          "internalType": "uint256",
          "name": "offset",
          "type": "uint256"
        },
        {
          "internalType": "uint256",
          "name": "limit",
          "type": "uint256"
        }
      ],
      "name": "getAllTokens",
      "outputs": [
        {
          "internalType": "address[]",
          "name": "addresses",
          "type": "address[]"
        }
      ],
      "stateMutability": "view",
      "type": "function"
    },
    {
      "inputs": [
        {
          "internalType": "address",
          "name": "creator",
          "type": "address"
        }
      ],
      "name": "getCreatorBalance",
      "outputs": [
        {
          "internalType": "uint256",
          "name": "balance",
          "type": "uint256"
        }
      ],
      "stateMutability": "view",
      "type": "function"
    },
    {
      "inputs": [
        {
          "internalType": "address",
          "name": "tokenAddress",
          "type": "address"
        }
      ],
      "name": "getCurrentPrice",
      "outputs": [
        {
          "internalType": "uint256",
          "name": "price",
          "type": "uint256"
        }
      ],
      "stateMutability": "view",
      "type": "function"
    },
    {
      "inputs": [
        {
          "internalType": "uint256",
          "name": "supply",
          "type": "uint256"
        }
      ],
      "name": "getReserveForSupply",
      "outputs": [
        {
          "internalType": "uint256",
          "name": "reserve",
          "type": "uint256"
        }
      ],
      "stateMutability": "view",
      "type": "function"
    },
    {
      "inputs": [],
      "name": "getTokenCount",
      "outputs": [
        {
          "internalType": "uint256",
          "name": "count",
          "type": "uint256"
        }
      ],
      "stateMutability": "view",
      "type": "function"
    },
    {
      "inputs": [
        {
          "internalType": "address",
          "name": "tokenAddress",
          "type": "address"
        }
      ],
      "name": "getTokenInfo",
      "outputs": [
        {
          "components": [
            {
              "internalType": "address",
              "name": "tokenAddress",
              "type": "address"
            },
            {
              "internalType": "address",
              "name": "creator",
              "type": "address"
            },
            {
              "internalType": "uint256",
              "name": "initialSupply",
              "type": "uint256"
            },
            {
              "internalType": "uint256",
              "name": "raisedAmount",
              "type": "uint256"
            },
            {
              "internalType": "bool",
              "name": "graduated",
              "type": "bool"
            },
            {
              "internalType": "bool",
              "name": "liquidityAdded",
              "type": "bool"
            }
          ],
          "internalType": "struct BondingCurveManager.TokenInfo",
          "name": "info",
          "type": "tuple"
        }
      ],
      "stateMutability": "view",
      "type": "function"
    },
    {
      "inputs": [
        {
          "internalType": "address",
          "name": "tokenAddress",
          "type": "address"
        }
      ],
      "name": "isGraduated",
      "outputs": [
        {
          "internalType": "bool",
          "name": "graduated",
          "type": "bool"
        }
      ],
      "stateMutability": "view",
      "type": "function"
    },
    {
      "inputs": [],
      "name": "owner",
      "outputs": [
        {
          "internalType": "address",
          "name": "",
          "type": "address"
        }
      ],
      "stateMutability": "view",
      "type": "function"
    },
    {
      "inputs": [
        {
          "internalType": "address",
          "name": "tokenAddress",
          "type": "address"
        },
        {
          "internalType": "uint256",
          "name": "amount",
          "type": "uint256"
        }
      ],
      "name": "previewBuy",
      "outputs": [
        {
          "internalType": "uint256",
          "name": "cost",
          "type": "uint256"
        }
      ],
      "stateMutability": "view",
      "type": "function"
    },
    {
      "inputs": [
        {
          "internalType": "address",
          "name": "tokenAddress",
          "type": "address"
        },
        {
          "internalType": "uint256",
          "name": "amount",
          "type": "uint256"
        }
      ],
      "name": "previewSell",
      "outputs": [
        {
          "internalType": "uint256",
          "name": "refund",
          "type": "uint256"
        }
      ],
      "stateMutability": "view",
      "type": "function"
    },
    {
      "inputs": [],
      "name": "protocolFeeBps",
      "outputs": [
        {
          "internalType": "uint256",
          "name": "",
          "type": "uint256"
        }
      ],
      "stateMutability": "view",
      "type": "function"
    },
    {
      "inputs": [],
      "name": "protocolFees",
      "outputs": [
        {
          "internalType": "uint256",
          "name": "",
          "type": "uint256"
        }
      ],
      "stateMutability": "view",
      "type": "function"
    },
    {
      "inputs": [],
      "name": "renounceOwnership",
      "outputs": [],
      "stateMutability": "nonpayable",
      "type": "function"
    },
    {
      "inputs": [
        {
          "internalType": "address",
          "name": "tokenAddress",
          "type": "address"
        },
        {
          "internalType": "uint256",
          "name": "amount",
          "type": "uint256"
        }
      ],
      "name": "sell",
      "outputs": [],
      "stateMutability": "nonpayable",
      "type": "function"
    },
    {
      "inputs": [
        {
          "internalType": "uint256",
          "name": "newFeeBps",
          "type": "uint256"
        }
      ],
      "name": "setCreatorFee",
      "outputs": [],
      "stateMutability": "nonpayable",
      "type": "function"
    },
    {
      "inputs": [
        {
          "internalType": "address",
          "name": "newRouter",
          "type": "address"
        }
      ],
      "name": "setDexRouter",
      "outputs": [],
      "stateMutability": "nonpayable",
      "type": "function"
    },
    {
      "inputs": [
        {
          "internalType": "uint256",
          "name": "newFeeBps",
          "type": "uint256"
        }
      ],
      "name": "setProtocolFee",
      "outputs": [],
      "stateMutability": "nonpayable",
      "type": "function"
    },
    {
      "inputs": [],
      "name": "tokenCount",
      "outputs": [
        {
          "internalType": "uint256",
          "name": "",
          "type": "uint256"
        }
      ],
      "stateMutability": "view",
      "type": "function"
    },
    {
      "inputs": [
        {
          "internalType": "uint256",
          "name": "",
          "type": "uint256"
        }
      ],
      "name": "tokenList",
      "outputs": [
        {
          "internalType": "address",
          "name": "",
          "type": "address"
        }
      ],
      "stateMutability": "view",
      "type": "function"
    },
    {
      "inputs": [
        {
          "internalType": "address",
          "name": "",
          "type": "address"
        }
      ],
      "name": "tokens",
      "outputs": [
        {
          "internalType": "address",
          "name": "tokenAddress",
          "type": "address"
        },
        {
          "internalType": "address",
          "name": "creator",
          "type": "address"
        },
        {
          "internalType": "uint256",
          "name": "initialSupply",
          "type": "uint256"
        },
        {
          "internalType": "uint256",
          "name": "raisedAmount",
          "type": "uint256"
        },
        {
          "internalType": "bool",
          "name": "graduated",
          "type": "bool"
        },
        {
          "internalType": "bool",
          "name": "liquidityAdded",
          "type": "bool"
        }
      ],
      "stateMutability": "view",
      "type": "function"
    },
    {
      "inputs": [
        {
          "internalType": "address",
          "name": "newOwner",
          "type": "address"
        }
      ],
      "name": "transferOwnership",
      "outputs": [],
      "stateMutability": "nonpayable",
      "type": "function"
    },
    {
      "inputs": [
        {
          "internalType": "address",
          "name": "to",
          "type": "address"
        }
      ],
      "name": "withdrawCreatorFees",
      "outputs": [],
      "stateMutability": "nonpayable",
      "type": "function"
    },
    {
      "inputs": [
        {
          "internalType": "address",
          "name": "to",
          "type": "address"
        }
      ],
      "name": "withdrawFees",
      "outputs": [],
      "stateMutability": "nonpayable",
      "type": "function"
    },
    {
      "stateMutability": "payable",
      "type": "receive"
    }
  ],
  "bytecode": "0x6101006040523480156200001257600080fd5b5060405162004dac38038062004dac8339810160408190526200003591620002c4565b33806200005d57604051631e4fbdf760e01b8152600060048201526024015b60405180910390fd5b620000688162000257565b506001805585620000ae5760405162461bcd60e51b815260206004820152600f60248201526e049564c206d757374206265203e203608c1b604482015260640162000054565b60008511620000f25760405162461bcd60e51b815260206004820152600f60248201526e0544d43206d757374206265203e203608c1b604482015260640162000054565b6101f4841115620001465760405162461bcd60e51b815260206004820152601460248201527f43726561746f722066656520746f6f2068696768000000000000000000000000604482015260640162000054565b60c8831115620001995760405162461bcd60e51b815260206004820152601560248201527f50726f746f636f6c2066656520746f6f20686967680000000000000000000000604482015260640162000054565b6001600160a01b038116620001f15760405162461bcd60e51b815260206004820152601560248201527f526f757465722063616e6e6f74206265207a65726f0000000000000000000000604482015260640162000054565b608086905260a0859052600284905560038390556001600160a01b0382811660e052600980546001600160a01b0319169183169190911790556127106200023b6103e88762000321565b6200024791906200034d565b60c0525062000370945050505050565b600080546001600160a01b038381166001600160a01b0319831681178455604051919092169283917f8be0079c531659141344cd1fd0a4f28419497f9722a3daafe3b4186f6b6457e09190a35050565b80516001600160a01b0381168114620002bf57600080fd5b919050565b60008060008060008060c08789031215620002de57600080fd5b865195506020870151945060408701519350606087015192506200030560808801620002a7565b91506200031560a08801620002a7565b90509295509295509295565b80820281158282048414176200034757634e487b7160e01b600052601160045260246000fd5b92915050565b6000826200036b57634e487b7160e01b600052601260045260246000fd5b500490565b60805160a05160c05160e0516149d1620003db60003960006107860152600081816105dd0152611e490152600081816102db01526126b701526000818161064801528181610cab01528181610f2b01528181611b0c01528181612278015261264201526149d16000f3fe6080604052600436106200027b5760003560e01c8063732d5e6a1162000153578063ad5c464811620000c5578063e48603391162000084578063e48603391462000838578063e5f0f5cc14620008db578063ef5c7e5b1462000900578063f2fde38b1462000925578063f4c5cdca146200094a578063f72f863b146200096f57600080fd5b8063ad5c46481462000772578063b5ac48a014620007a8578063c74c0fac14620007cd578063cce7ec1314620007f7578063d8264920146200080e57600080fd5b806384cc315b116200011257806384cc315b14620006cb5780638da5cb5b14620006f05780639a04383214620007105780639ead722214620007355780639f181b5e146200075a57600080fd5b8063732d5e6a14620006175780637551f04d146200063457806375a1a379146200066a578063787dce3d146200068f57806378a8956714620006b457600080fd5b80632a78280211620001ed57806365cc631111620001ac57806365cc6311146200052957806368a4c8b714620005535780636c197ff514620005a45780637146bd0814620005c9578063715018a614620005ff57600080fd5b80632a782802146200048d5780632f2f2d5614620004be57806335659fb814620004d557806341344d5d14620004ed57806355776b77146200051257600080fd5b806317773ebb116200023a57806317773ebb14620003925780631ad8b03b14620003aa5780631f69565f14620003c2578063271a7be414620004415780632a5c792a146200046657600080fd5b80630758d924146200028857806308cad93614620002c757806309cf7ffc146200030c5780630dd16fd51462000346578063164e68de146200036d57600080fd5b366200028357005b600080fd5b3480156200029557600080fd5b50600954620002aa906001600160a01b031681565b6040516001600160a01b0390911681526020015b60405180910390f35b348015620002d457600080fd5b50620002fd7f000000000000000000000000000000000000000000000000000000000000000081565b604051908152602001620002be565b3480156200031957600080fd5b50620002fd6200032b3660046200287a565b6001600160a01b031660009081526006602052604090205490565b3480156200035357600080fd5b506200036b62000365366004620028a1565b62000994565b005b3480156200037a57600080fd5b506200036b6200038c3660046200287a565b62000a08565b3480156200039f57600080fd5b50620002fd60025481565b348015620003b757600080fd5b50620002fd60055481565b348015620003cf57600080fd5b50620003e7620003e13660046200287a565b62000ac2565b604051620002be919081516001600160a01b03908116825260208084015190911690820152604080830151908201526060808301519082015260808083015115159082015260a09182015115159181019190915260c00190565b3480156200044e57600080fd5b50620002fd62000460366004620028bb565b62000b9f565b3480156200047357600080fd5b506200047e62000be4565b604051620002be9190620028de565b3480156200049a57600080fd5b50620002fd620004ac3660046200287a565b60066020526000908152604090205481565b620002aa620004cf36600462002979565b62000c48565b348015620004e257600080fd5b50620002fd60035481565b348015620004fa57600080fd5b50620002fd6200050c3660046200287a565b62000e83565b6200036b62000523366004620029ec565b62000fa2565b3480156200053657600080fd5b50620002aa73f021671f986ff1d07b867ccc4bb9d39bb8336d9b81565b3480156200056057600080fd5b5062000593620005723660046200287a565b6001600160a01b031660009081526007602052604090206004015460ff1690565b6040519015158152602001620002be565b348015620005b157600080fd5b506200036b620005c336600462002a24565b62001553565b348015620005d657600080fd5b50620002fd7f000000000000000000000000000000000000000000000000000000000000000081565b3480156200060c57600080fd5b506200036b620019b3565b3480156200062457600080fd5b50620002fd662386f26fc1000081565b3480156200064157600080fd5b50620002fd7f000000000000000000000000000000000000000000000000000000000000000081565b3480156200067757600080fd5b50620002fd62000689366004620028bb565b620019cb565b3480156200069c57600080fd5b506200036b620006ae366004620028a1565b620019f8565b348015620006c157600080fd5b50600454620002fd565b348015620006d857600080fd5b50620002fd620006ea3660046200287a565b62001a64565b348015620006fd57600080fd5b506000546001600160a01b0316620002aa565b3480156200071d57600080fd5b506200047e6200072f366004620028bb565b62001b62565b3480156200074257600080fd5b50620002aa62000754366004620028a1565b62001cbf565b3480156200076757600080fd5b50620002fd60045481565b3480156200077f57600080fd5b50620002aa7f000000000000000000000000000000000000000000000000000000000000000081565b348015620007b557600080fd5b50620002fd620007c736600462002a24565b62001cea565b348015620007da57600080fd5b50620002aa73e60ad5e463c97f68d5227f7a79769f3f5ac2a53181565b6200036b6200080836600462002a24565b62001da4565b3480156200081b57600080fd5b50620002aa734b626265306f5f2ac45054ac6c64b96716e3721181565b3480156200084557600080fd5b506200089e620008573660046200287a565b600760205260009081526040902080546001820154600283015460038401546004909401546001600160a01b03938416949390921692909160ff8082169161010090041686565b604080516001600160a01b03978816815296909516602087015293850192909252606084015215156080830152151560a082015260c001620002be565b348015620008e857600080fd5b50620002fd620008fa36600462002a24565b620021c3565b3480156200090d57600080fd5b50620002fd6200091f366004620028a1565b62002273565b3480156200093257600080fd5b506200036b620009443660046200287a565b620022ea565b3480156200095757600080fd5b506200036b620009693660046200287a565b6200232e565b3480156200097c57600080fd5b506200036b6200098e3660046200287a565b620023e0565b6200099e62002464565b6101f4811115620009c25760405163cd4e616760e01b815260040160405180910390fd5b600280549082905560408051828152602081018490527fe9de431c174ea7e96b3752434ded46102ffee5b69259c0f5def0367b5ddb5d4391015b60405180910390a15050565b62000a1262002464565b6001600160a01b03811662000a3a5760405163d92e233d60e01b815260040160405180910390fd5b600554600081900362000a605760405163162908e360e11b815260040160405180910390fd5b600060055562000a7a6001600160a01b0383168262002493565b816001600160a01b03167fa087657e3d85162090ffd700fbfdf5070d816f63aa5da00063f6ffd369c8a6db8260405162000ab691815260200190565b60405180910390a25050565b6040805160c081018252600080825260208201819052918101829052606081018290526080810182905260a08101919091526001600160a01b038281166000908152600760205260409020541662000b2d57604051630f58058360e11b815260040160405180910390fd5b506001600160a01b03908116600090815260076020908152604091829020825160c081018452815485168152600182015490941691840191909152600281015491830191909152600381015460608301526004015460ff8082161515608084015261010090910416151560a082015290565b60008062000bae838562002a69565b9050600062000bbd8262002273565b9050600062000bcc8662002273565b905062000bda818362002a7f565b9695505050505050565b6060600880548060200260200160405190810160405280929190818152602001828054801562000c3e57602002820191906000526020600020905b81546001600160a01b0316815260019091019060200180831162000c1f575b5050505050905090565b6000662386f26fc1000034101562000ca75760405162461bcd60e51b815260206004820152601960248201527f496e73756666696369656e74206372656174696f6e206665650000000000000060448201526064015b60405180910390fd5b60007f00000000000000000000000000000000000000000000000000000000000000009050600086868686853060405162000ce29062002856565b62000cf39695949392919062002abe565b604051809103906000f08015801562000d10573d6000803e3d6000fd5b506040805160c0810182526001600160a01b038084168083523360208085019182528486018981526000606087018181526080880182815260a089018381528784526007909552988220975188549088166001600160a01b031991821617895594516001898101805492909916918716919091179097559151600288015590516003870155955160049586018054925115156101000261ff00199215159290921661ffff199093169290921717905560088054938401815585527ff3f7a9fe364faab93b216da50a3214154f22a0a2b415b23a84c8169e8b636ee3909201805490921617905580549295508593509062000e0a8362002b0d565b9190505550346005600082825462000e23919062002a69565b909155505060405133906001600160a01b038516907fc12630d761ddbf18b9530f31d91e67493535a2b635711bcff59fded8bf381cce9062000e71908b908b908b908b908a90349062002b29565b60405180910390a35050949350505050565b6001600160a01b0381811660009081526007602052604081205490911662000ebe57604051630f58058360e11b815260040160405180910390fd5b6000826001600160a01b03166318160ddd6040518163ffffffff1660e01b8152600401602060405180830381865afa15801562000eff573d6000803e3d6000fd5b505050506040513d601f19601f8201168201806040525081019062000f25919062002b6a565b905060007f000000000000000000000000000000000000000000000000000000000000000062000f5e670de0b6b3a76400008262002b84565b62000f6a919062002b9e565b9050670de0b6b3a76400008262000f82818462002b84565b62000f8e919062002b84565b62000f9a919062002b9e565b949350505050565b62000fac62002530565b6001600160a01b0383166000908152600760205260409020600481015460ff1662000fea576040516318caafeb60e01b815260040160405180910390fd5b8060030154600003620010105760405163162908e360e11b815260040160405180910390fd5b6004810154610100900460ff16156200103c5760405163b657fe1360e01b815260040160405180910390fd5b60038101546040516370a0823160e01b81523060048201528591906000906001600160a01b038416906370a0823190602401602060405180830381865afa1580156200108c573d6000803e3d6000fd5b505050506040513d601f19601f82011682018060405250810190620010b2919062002b6a565b905080600003620010d65760405163162908e360e11b815260040160405180910390fd5b60048401805461ff00191661010017905560038401805460009182905560405190916001600160a01b038a16916000805160206200497c833981519152916200112a91859190918252602082015260400190565b60405180910390a260405163095ea7b360e01b8152734b626265306f5f2ac45054ac6c64b96716e372116004820152602481018390526001600160a01b0385169063095ea7b3906044016020604051808303816000875af115801562001194573d6000803e3d6000fd5b505050506040513d601f19601f82011682018060405250810190620011ba919062002bc1565b5060405163e6a4390560e01b81526001600160a01b038916600482015273f021671f986ff1d07b867ccc4bb9d39bb8336d9b602482015273e60ad5e463c97f68d5227f7a79769f3f5ac2a53190600090829063e6a4390590604401602060405180830381865afa15801562001233573d6000803e3d6000fd5b505050506040513d601f19601f8201168201806040525081019062001259919062002be5565b90506001600160a01b038116620012f6576040516364e329cb60e11b81526001600160a01b038b8116600483015273f021671f986ff1d07b867ccc4bb9d39bb8336d9b602483015283169063c9c65396906044016020604051808303816000875af1158015620012cd573d6000803e3d6000fd5b505050506040513d601f19601f82011682018060405250810190620012f3919062002be5565b90505b600187015460405163f305d71960e01b81526001600160a01b038c8116600483015260248201879052604482018c9052606482018b905290911660848201524260a4820152734b626265306f5f2ac45054ac6c64b96716e372119063f305d71990879060c40160606040518083038185885af1935050505080156200139a575060408051601f3d908101601f19168201909252620013979181019062002c05565b60015b620014005760048701805461ff0019169055600387018390556040805160008152602081018590526001600160a01b038c16916000805160206200497c833981519152910160405180910390a260405163b657fe1360e01b815260040160405180910390fd5b60408051848152602081018490526001600160a01b038f16917f5b3e1dd3b11e7fd58f6c03f276b57c2cd044efe2a497dd75893e5a9759a78628910160405180910390a26040516370a0823160e01b81523060048201526000906001600160a01b038b16906370a0823190602401602060405180830381865afa1580156200148c573d6000803e3d6000fd5b505050506040513d601f19601f82011682018060405250810190620014b2919062002b6a565b90508015620015395760018b015460405163a9059cbb60e01b81526001600160a01b03918216600482015260248101839052908b169063a9059cbb906044016020604051808303816000875af115801562001511573d6000803e3d6000fd5b505050506040513d601f19601f8201168201806040525081019062001537919062002bc1565b505b50505050505050505050506200154e60018055565b505050565b6200155d62002530565b6001600160a01b03828116600090815260076020526040902054166200159657604051630f58058360e11b815260040160405180910390fd5b6001600160a01b03821660009081526007602052604090206004015460ff1615620015d4576040516369107eb960e01b815260040160405180910390fd5b80600003620015f65760405163162908e360e11b815260040160405180910390fd5b60008290506000816001600160a01b03166318160ddd6040518163ffffffff1660e01b8152600401602060405180830381865afa1580156200163c573d6000803e3d6000fd5b505050506040513d601f19601f8201168201806040525081019062001662919062002b6a565b6040516370a0823160e01b815233600482015290915083906001600160a01b038416906370a0823190602401602060405180830381865afa158015620016ac573d6000803e3d6000fd5b505050506040513d601f19601f82011682018060405250810190620016d2919062002b6a565b1015620016f25760405163162908e360e11b815260040160405180910390fd5b6000620017008285620019cb565b905060006127106002548362001717919062002b84565b62001723919062002b9e565b90506000612710600354846200173a919062002b84565b62001746919062002b9e565b905060008162001757848662002a7f565b62001763919062002a7f565b604051632770a7eb60e21b8152336004820152602481018990529091506001600160a01b03871690639dc29fac90604401600060405180830381600087803b158015620017af57600080fd5b505af1158015620017c4573d6000803e3d6000fd5b505050506001600160a01b03881660009081526007602052604090206003015481811015620017f55760006200181e565b6001600160a01b0389166000908152600760205260409020600301546200181e90839062002a7f565b6001600160a01b038a16600081815260076020526040908190206003018390555190916000805160206200497c833981519152916200186591858252602082015260400190565b60405180910390a26001600160a01b03808a1660009081526007602052604090206001015416841562001914576001600160a01b0381166000908152600660205260408120805491879190620018bc838562002a69565b90915550506001600160a01b038216600081815260066020908152604091829020548251858152918201527fca3148cb790ffc99a63cbbd161e7bfbba0e5966370847646f868c993e1897db3910160405180910390a2505b8315620019355783600560008282546200192f919062002a69565b90915550505b8215620019485762001948338462002493565b604080518a8152602081018890529081018690526060810185905233906001600160a01b038c16907f34f38731fae2221a0127cde5769237f08a73e828efb7c9a19e4c6fa171ff763d9060800160405180910390a35050505050505050620019af60018055565b5050565b620019bd62002464565b620019c960006200255b565b565b600080620019da838562002a7f565b90506000620019e98562002273565b9050600062000bcc8362002273565b62001a0262002464565b60c881111562001a255760405163cd4e616760e01b815260040160405180910390fd5b600380549082905560408051828152602081018490527fb404cac19fb1cbeff98d325795b08886e3cd8fe8cb1a2f193aac66f13fb239c39101620009fc565b6001600160a01b0381811660009081526007602052604081205490911662001a9f57604051630f58058360e11b815260040160405180910390fd5b6000826001600160a01b03166318160ddd6040518163ffffffff1660e01b8152600401602060405180830381865afa15801562001ae0573d6000803e3d6000fd5b505050506040513d601f19601f8201168201806040525081019062001b06919062002b6a565b905060007f000000000000000000000000000000000000000000000000000000000000000062001b3f670de0b6b3a76400008262002b84565b62001b4b919062002b9e565b9050670de0b6b3a764000062000f8e838362002b84565b600854606090831062001baf5760405162461bcd60e51b81526020600482015260146024820152734f6666736574206f7574206f6620626f756e647360601b604482015260640162000c9e565b600062001bbd838562002a69565b60085490915081111562001bd057506008545b600062001bde858362002a7f565b90508067ffffffffffffffff81111562001bfc5762001bfc62002c34565b60405190808252806020026020018201604052801562001c26578160200160208202803683370190505b50925060005b8181101562001cb657600862001c43828862002a69565b8154811062001c565762001c5662002c4a565b9060005260206000200160009054906101000a90046001600160a01b031684828151811062001c895762001c8962002c4a565b6001600160a01b03909216602092830291909101909101528062001cad8162002b0d565b91505062001c2c565b50505092915050565b6008818154811062001cd057600080fd5b6000918252602090912001546001600160a01b0316905081565b6001600160a01b0382811660009081526007602052604081205490911662001d2557604051630f58058360e11b815260040160405180910390fd5b6000836001600160a01b03166318160ddd6040518163ffffffff1660e01b8152600401602060405180830381865afa15801562001d66573d6000803e3d6000fd5b505050506040513d601f19601f8201168201806040525081019062001d8c919062002b6a565b905062001d9a818462000b9f565b9150505b92915050565b62001dae62002530565b6001600160a01b038281166000908152600760205260409020541662001de757604051630f58058360e11b815260040160405180910390fd5b6001600160a01b03821660009081526007602052604090206004015460ff161562001e25576040516369107eb960e01b815260040160405180910390fd5b8060000362001e475760405163162908e360e11b815260040160405180910390fd5b7f000000000000000000000000000000000000000000000000000000000000000081111562001e8957604051630fdcb3e360e31b815260040160405180910390fd5b60008290506000816001600160a01b03166318160ddd6040518163ffffffff1660e01b8152600401602060405180830381865afa15801562001ecf573d6000803e3d6000fd5b505050506040513d601f19601f8201168201806040525081019062001ef5919062002b6a565b9050600062001f05828562000b9f565b90508034101562001f295760405163cd1c886760e01b815260040160405180910390fd5b60006127106002548362001f3e919062002b84565b62001f4a919062002b9e565b905060006127106003548462001f61919062002b84565b62001f6d919062002b9e565b905060008162001f7e848662002a7f565b62001f8a919062002a7f565b9050600062001f9a853462002a7f565b6001600160a01b038a1660009081526007602052604081206003018054929350849162001fc8838562002a69565b90915550506001600160a01b038a16600081815260076020908152604091829020600301548251858152918201526000805160206200497c833981519152910160405180910390a26001600160a01b03808b16600090815260076020526040902060010154168515620020b7576001600160a01b03811660009081526006602052604081208054918891906200205f838562002a69565b90915550506001600160a01b038216600081815260066020908152604091829020548251858152918201527fca3148cb790ffc99a63cbbd161e7bfbba0e5966370847646f868c993e1897db3910160405180910390a2505b8415620020d8578460056000828254620020d2919062002a69565b90915550505b6040516340c10f1960e01b8152336004820152602481018b90526001600160a01b038a16906340c10f1990604401600060405180830381600087803b1580156200212157600080fd5b505af115801562002136573d6000803e3d6000fd5b505050506000831115620021505762002150338462002493565b604080518b8152602081018990529081018790526060810186905233906001600160a01b038d16907f4c6d269da7a2da288d1319084a8b9a593a676b9b529b0449c2faa9bab82c22719060800160405180910390a3620021b08b620025ab565b505050505050505050620019af60018055565b6001600160a01b03828116600090815260076020526040812054909116620021fe57604051630f58058360e11b815260040160405180910390fd5b6000836001600160a01b03166318160ddd6040518163ffffffff1660e01b8152600401602060405180830381865afa1580156200223f573d6000803e3d6000fd5b505050506040513d601f19601f8201168201806040525081019062002265919062002b6a565b905062001d9a8184620019cb565b6000807f0000000000000000000000000000000000000000000000000000000000000000620022ab670de0b6b3a76400008262002b84565b620022b7919062002b9e565b90506000620022c7848062002b84565b9050620022de670de0b6b3a7640000600262002b84565b62000f8e828462002b84565b620022f462002464565b6001600160a01b0381166200232057604051631e4fbdf760e01b81526000600482015260240162000c9e565b6200232b816200255b565b50565b6001600160a01b038116620023565760405163d92e233d60e01b815260040160405180910390fd5b33600090815260066020526040812054908190036200238857604051634a40a0ff60e11b815260040160405180910390fd5b33600090815260066020526040812055620023ad6001600160a01b0383168262002493565b60405181815233907f7f0b212761a7abe7ec4d2adea5a7fa1fea58234aabf0c01c0e63403fe62013ff9060200162000ab6565b620023ea62002464565b6001600160a01b038116620024125760405163d92e233d60e01b815260040160405180910390fd5b600980546001600160a01b038381166001600160a01b0319831681179093556040519116919082907ff296fa3e8eb1c1d46e2d1eafbd38e92f916e42b9ce1573a1cc98b2d0e4e5e86290600090a35050565b6000546001600160a01b03163314620019c95760405163118cdaa760e01b815233600482015260240162000c9e565b80471015620024bf5760405163cf47918160e01b81524760048201526024810182905260440162000c9e565b600080836001600160a01b03168360405160006040518083038185875af1925050503d80600081146200250f576040519150601f19603f3d011682016040523d82523d6000602084013e62002514565b606091505b5091509150816200252a576200252a81620026ef565b50505050565b6002600154036200255457604051633ee5aeb560e01b815260040160405180910390fd5b6002600155565b600080546001600160a01b038381166001600160a01b0319831681178455604051919092169283917f8be0079c531659141344cd1fd0a4f28419497f9722a3daafe3b4186f6b6457e09190a35050565b6001600160a01b0381166000908152600760205260409020600481015460ff1615620025d5575050565b6000826001600160a01b03166318160ddd6040518163ffffffff1660e01b8152600401602060405180830381865afa15801562002616573d6000803e3d6000fd5b505050506040513d601f19601f820116820180604052508101906200263c919062002b6a565b905060007f000000000000000000000000000000000000000000000000000000000000000062002675670de0b6b3a76400008262002b84565b62002681919062002b9e565b90506000670de0b6b3a7640000836200269b818562002b84565b620026a7919062002b84565b620026b3919062002b9e565b90507f00000000000000000000000000000000000000000000000000000000000000008110620026e857620026e88562002718565b5050505050565b805115620026ff57805160208201fd5b60405163d6bda27560e01b815260040160405180910390fd5b6001600160a01b03811660008181526007602090815260408083206004808201805460ff1916600117905582516318160ddd60e01b815292519195936318160ddd93808301939192908290030181865afa1580156200277b573d6000803e3d6000fd5b505050506040513d601f19601f82011682018060405250810190620027a1919062002b6a565b604051637bbb224d60e11b8152600481018290529091506001600160a01b0384169063f776449a90602401600060405180830381600087803b158015620027e757600080fd5b505af1158015620027fc573d6000803e3d6000fd5b50505050826001600160a01b03167f5b3e1dd3b11e7fd58f6c03f276b57c2cd044efe2a497dd75893e5a9759a7862882846003015460405162002849929190918252602082015260400190565b60405180910390a2505050565b611d1b8062002c6183390190565b6001600160a01b03811681146200232b57600080fd5b6000602082840312156200288d57600080fd5b81356200289a8162002864565b9392505050565b600060208284031215620028b457600080fd5b5035919050565b60008060408385031215620028cf57600080fd5b50508035926020909101359150565b6020808252825182820181905260009190848201906040850190845b81811015620029215783516001600160a01b031683529284019291840191600101620028fa565b50909695505050505050565b60008083601f8401126200294057600080fd5b50813567ffffffffffffffff8111156200295957600080fd5b6020830191508360208285010111156200297257600080fd5b9250929050565b600080600080604085870312156200299057600080fd5b843567ffffffffffffffff80821115620029a957600080fd5b620029b7888389016200292d565b90965094506020870135915080821115620029d157600080fd5b50620029e0878288016200292d565b95989497509550505050565b60008060006060848603121562002a0257600080fd5b833562002a0f8162002864565b95602085013595506040909401359392505050565b6000806040838503121562002a3857600080fd5b823562002a458162002864565b946020939093013593505050565b634e487b7160e01b600052601160045260246000fd5b8082018082111562001d9e5762001d9e62002a53565b8181038181111562001d9e5762001d9e62002a53565b81835281816020850137506000828201602090810191909152601f909101601f19169091010190565b60808152600062002ad460808301888a62002a95565b828103602084015262002ae981878962002a95565b604084019590955250506001600160a01b0391909116606090910152949350505050565b60006001820162002b225762002b2262002a53565b5060010190565b60808152600062002b3f60808301888a62002a95565b828103602084015262002b5481878962002a95565b6040840195909552505060600152949350505050565b60006020828403121562002b7d57600080fd5b5051919050565b808202811582820484141762001d9e5762001d9e62002a53565b60008262002bbc57634e487b7160e01b600052601260045260246000fd5b500490565b60006020828403121562002bd457600080fd5b815180151581146200289a57600080fd5b60006020828403121562002bf857600080fd5b81516200289a8162002864565b60008060006060848603121562002c1b57600080fd5b8351925060208401519150604084015190509250925092565b634e487b7160e01b600052604160045260246000fd5b634e487b7160e01b600052603260045260246000fdfe6101606040523480156200001257600080fd5b5060405162001d1b38038062001d1b83398101604081905262000035916200058b565b808480604051806040016040528060018152602001603160f81b81525087878160039081620000659190620006af565b506004620000748282620006af565b5062000086915083905060056200027f565b61012052620000978160066200027f565b61014052815160208084019190912060e052815190820120610100524660a0526200012560e05161010051604080517f8b73c3c69bb8fe3d512ecc4cf759cc79239f7b179b0ffacaa9a75d522b39400f60208201529081019290925260608201524660808201523060a082015260009060c00160405160208183030381529060405280519060200120905090565b60805250503060c052506001600160a01b0381166200015f57604051631e4fbdf760e01b8152600060048201526024015b60405180910390fd5b6200016a81620002b8565b506001600160a01b038116620001c35760405162461bcd60e51b815260206004820152601660248201527f4d616e616765722063616e6e6f74206265207a65726f00000000000000000000604482015260640162000156565b60008211620002155760405162461bcd60e51b815260206004820152601a60248201527f496e697469616c20737570706c79206d757374206265203e2030000000000000604482015260640162000156565b600980546001600160a01b0319166001600160a01b0383169081179091556200023f90836200030a565b6040516001600160a01b038216906000907fc64707e618a83637fc41ad1e3aa4242bd5fdd353f3d60bc0faf40db0d7d86078908290a350505050620007f7565b60006020835110156200029f57620002978362000348565b9050620002b2565b81620002ac8482620006af565b5060ff90505b92915050565b600880546001600160a01b038381166001600160a01b0319831681179093556040519116919082907f8be0079c531659141344cd1fd0a4f28419497f9722a3daafe3b4186f6b6457e090600090a35050565b6001600160a01b038216620003365760405163ec442f0560e01b81526000600482015260240162000156565b62000344600083836200038b565b5050565b600080829050601f8151111562000376578260405163305a27a960e01b81526004016200015691906200077b565b80516200038382620007b0565b179392505050565b6001600160a01b038316620003ba578060026000828254620003ae9190620007d5565b909155506200042e9050565b6001600160a01b038316600090815260208190526040902054818110156200040f5760405163391434e360e21b81526001600160a01b0385166004820152602481018290526044810183905260640162000156565b6001600160a01b03841660009081526020819052604090209082900390555b6001600160a01b0382166200044c576002805482900390556200046b565b6001600160a01b03821660009081526020819052604090208054820190555b816001600160a01b0316836001600160a01b03167fddf252ad1be2c89b69c2b068fc378daa952ba7f163c4a11628f55a4df523b3ef83604051620004b191815260200190565b60405180910390a3505050565b634e487b7160e01b600052604160045260246000fd5b60005b83811015620004f1578181015183820152602001620004d7565b50506000910152565b600082601f8301126200050c57600080fd5b81516001600160401b0380821115620005295762000529620004be565b604051601f8301601f19908116603f01168101908282118183101715620005545762000554620004be565b816040528381528660208588010111156200056e57600080fd5b62000581846020830160208901620004d4565b9695505050505050565b60008060008060808587031215620005a257600080fd5b84516001600160401b0380821115620005ba57600080fd5b620005c888838901620004fa565b95506020870151915080821115620005df57600080fd5b50620005ee87828801620004fa565b60408701516060880151919550935090506001600160a01b03811681146200061557600080fd5b939692955090935050565b600181811c908216806200063557607f821691505b6020821081036200065657634e487b7160e01b600052602260045260246000fd5b50919050565b601f821115620006aa57600081815260208120601f850160051c81016020861015620006855750805b601f850160051c820191505b81811015620006a65782815560010162000691565b5050505b505050565b81516001600160401b03811115620006cb57620006cb620004be565b620006e381620006dc845462000620565b846200065c565b602080601f8311600181146200071b5760008415620007025750858301515b600019600386901b1c1916600185901b178555620006a6565b600085815260208120601f198616915b828110156200074c578886015182559484019460019091019084016200072b565b50858210156200076b5787850151600019600388901b60f8161c191681555b5050505050600190811b01905550565b60208152600082518060208401526200079c816040850160208701620004d4565b601f01601f19169190910160400192915050565b80516020808301519190811015620006565760001960209190910360031b1b16919050565b80820180821115620002b257634e487b7160e01b600052601160045260246000fd5b60805160a05160c05160e0516101005161012051610140516114c9620008526000396000610c4201526000610c1501526000610b0401526000610adc01526000610a3701526000610a6101526000610a8b01526114c96000f3fe608060405234801561001057600080fd5b50600436106101585760003560e01c80638da5cb5b116100c3578063d505accf1161007c578063d505accf146102e3578063dd62ed3e146102f6578063e64558c71461032f578063e7c2b77214610338578063f2fde38b1461034c578063f776449a1461035f57600080fd5b80638da5cb5b1461027957806395d89b411461028a5780639dc29fac14610292578063a9059cbb146102a5578063abb1dc44146102b8578063d0ebdbe7146102d057600080fd5b806340c10f191161011557806340c10f19146101da578063481c6a75146101ef57806370a082311461021a578063715018a6146102435780637ecebe001461024b57806384b0196e1461025e57600080fd5b806306fdde031461015d578063095ea7b31461017b57806318160ddd1461019e57806323b872dd146101b0578063313ce567146101c35780633644e515146101d2575b600080fd5b610165610372565b60405161017291906111d8565b60405180910390f35b61018e61018936600461120e565b610404565b6040519015158152602001610172565b6002545b604051908152602001610172565b61018e6101be366004611238565b61041e565b60405160128152602001610172565b6101a2610442565b6101ed6101e836600461120e565b610451565b005b600954610202906001600160a01b031681565b6040516001600160a01b039091168152602001610172565b6101a2610228366004611274565b6001600160a01b031660009081526020819052604090205490565b6101ed6104f9565b6101a2610259366004611274565b61050d565b61026661052b565b604051610172979695949392919061128f565b6008546001600160a01b0316610202565b610165610571565b6101ed6102a036600461120e565b610580565b61018e6102b336600461120e565b6105f5565b6102c0610603565b6040516101729493929190611325565b6101ed6102de366004611274565b610637565b6101ed6102f1366004611363565b6106f6565b6101a26103043660046113d6565b6001600160a01b03918216600090815260016020908152604080832093909416825291909152205490565b6101a2600a5481565b60095461018e90600160a01b900460ff1681565b6101ed61035a366004611274565b610830565b6101ed61036d366004611409565b61086e565b60606003805461038190611422565b80601f01602080910402602001604051908101604052809291908181526020018280546103ad90611422565b80156103fa5780601f106103cf576101008083540402835291602001916103fa565b820191906000526020600020905b8154815290600101906020018083116103dd57829003601f168201915b5050505050905090565b60003361041281858561093a565b60019150505b92915050565b60003361042c85828561094c565b6104378585856109cb565b506001949350505050565b600061044c610a2a565b905090565b6009546001600160a01b0316331461047b576040516282b42960e81b815260040160405180910390fd5b600954600160a01b900460ff16156104a65760405163e6a0d45f60e01b815260040160405180910390fd5b6104b08282610b55565b60408051828152600060208201526001600160a01b038416917f2e8ac5177a616f2aec08c3048f5021e4e9743ece034e8d83ba5caf76688bb47591015b60405180910390a25050565b610501610b8f565b61050b6000610bbc565b565b6001600160a01b038116600090815260076020526040812054610418565b60006060806000806000606061053f610c0e565b610547610c3b565b60408051600080825260208201909252600f60f81b9b939a50919850469750309650945092509050565b60606004805461038190611422565b6009546001600160a01b031633146105aa576040516282b42960e81b815260040160405180910390fd5b6105b48282610c68565b60408051828152600060208201526001600160a01b038416917fccbea4088a3b7ae9ca2d15fab9a9742a4075b4d7247768a1eecea917565aba0091016104ed565b6000336104128185856109cb565b606080600080610611610372565b610619610571565b60025460095492979196509450600160a01b90910460ff1692509050565b61063f610b8f565b6001600160a01b03811661069a5760405162461bcd60e51b815260206004820152601a60248201527f4e6577206d616e616765722063616e6e6f74206265207a65726f00000000000060448201526064015b60405180910390fd5b6009546040516001600160a01b038084169216907fc64707e618a83637fc41ad1e3aa4242bd5fdd353f3d60bc0faf40db0d7d8607890600090a3600980546001600160a01b0319166001600160a01b0392909216919091179055565b8342111561071a5760405163313c898160e11b815260048101859052602401610691565b60007f6e71edae12b1b97f4d1f60370fef10105fa2faae0126114a169c64845d6126c98888886107678c6001600160a01b0316600090815260076020526040902080546001810190915590565b6040805160208101969096526001600160a01b0394851690860152929091166060840152608083015260a082015260c0810186905260e00160405160208183030381529060405280519060200120905060006107c282610c9e565b905060006107d282878787610ccb565b9050896001600160a01b0316816001600160a01b031614610819576040516325c0072360e11b81526001600160a01b0380831660048301528b166024820152604401610691565b6108248a8a8a61093a565b50505050505050505050565b610838610b8f565b6001600160a01b03811661086257604051631e4fbdf760e01b815260006004820152602401610691565b61086b81610bbc565b50565b6009546001600160a01b03163314610898576040516282b42960e81b815260040160405180910390fd5b600954600160a01b900460ff16156108e65760405162461bcd60e51b8152602060048201526011602482015270105b1c9958591e4819dc98591d585d1959607a1b6044820152606401610691565b6009805460ff60a01b1916600160a01b179055600a81905560408051828152600060208201527facfdce92da76539f5af2efc3aa76d42a7a92af4d723a23d144f58fdf1472921e910160405180910390a150565b6109478383836001610cf9565b505050565b6001600160a01b038381166000908152600160209081526040808320938616835292905220546000198110156109c557818110156109b657604051637dc7a0d960e11b81526001600160a01b03841660048201526024810182905260448101839052606401610691565b6109c584848484036000610cf9565b50505050565b6001600160a01b0383166109f557604051634b637e8f60e11b815260006004820152602401610691565b6001600160a01b038216610a1f5760405163ec442f0560e01b815260006004820152602401610691565b610947838383610dce565b6000306001600160a01b037f000000000000000000000000000000000000000000000000000000000000000016148015610a8357507f000000000000000000000000000000000000000000000000000000000000000046145b15610aad57507f000000000000000000000000000000000000000000000000000000000000000090565b61044c604080517f8b73c3c69bb8fe3d512ecc4cf759cc79239f7b179b0ffacaa9a75d522b39400f60208201527f0000000000000000000000000000000000000000000000000000000000000000918101919091527f000000000000000000000000000000000000000000000000000000000000000060608201524660808201523060a082015260009060c00160405160208183030381529060405280519060200120905090565b6001600160a01b038216610b7f5760405163ec442f0560e01b815260006004820152602401610691565b610b8b60008383610dce565b5050565b6008546001600160a01b0316331461050b5760405163118cdaa760e01b8152336004820152602401610691565b600880546001600160a01b038381166001600160a01b0319831681179093556040519116919082907f8be0079c531659141344cd1fd0a4f28419497f9722a3daafe3b4186f6b6457e090600090a35050565b606061044c7f00000000000000000000000000000000000000000000000000000000000000006005610ef8565b606061044c7f00000000000000000000000000000000000000000000000000000000000000006006610ef8565b6001600160a01b038216610c9257604051634b637e8f60e11b815260006004820152602401610691565b610b8b82600083610dce565b6000610418610cab610a2a565b8360405161190160f01b8152600281019290925260228201526042902090565b600080600080610cdd88888888610fa3565b925092509250610ced8282611072565b50909695505050505050565b6001600160a01b038416610d235760405163e602df0560e01b815260006004820152602401610691565b6001600160a01b038316610d4d57604051634a1406b160e11b815260006004820152602401610691565b6001600160a01b03808516600090815260016020908152604080832093871683529290522082905580156109c557826001600160a01b0316846001600160a01b03167f8c5be1e5ebec7d5bd14f71427d1e84f3dd0314c0f7b2291e5b200ac8c7c3b92584604051610dc091815260200190565b60405180910390a350505050565b6001600160a01b038316610df9578060026000828254610dee919061145c565b90915550610e6b9050565b6001600160a01b03831660009081526020819052604090205481811015610e4c5760405163391434e360e21b81526001600160a01b03851660048201526024810182905260448101839052606401610691565b6001600160a01b03841660009081526020819052604090209082900390555b6001600160a01b038216610e8757600280548290039055610ea6565b6001600160a01b03821660009081526020819052604090208054820190555b816001600160a01b0316836001600160a01b03167fddf252ad1be2c89b69c2b068fc378daa952ba7f163c4a11628f55a4df523b3ef83604051610eeb91815260200190565b60405180910390a3505050565b606060ff8314610f1257610f0b8361112b565b9050610418565b818054610f1e90611422565b80601f0160208091040260200160405190810160405280929190818152602001828054610f4a90611422565b8015610f975780601f10610f6c57610100808354040283529160200191610f97565b820191906000526020600020905b815481529060010190602001808311610f7a57829003601f168201915b50505050509050610418565b600080807f7fffffffffffffffffffffffffffffff5d576e7357a4501ddfe92f46681b20a0841115610fde5750600091506003905082611068565b604080516000808252602082018084528a905260ff891692820192909252606081018790526080810186905260019060a0016020604051602081039080840390855afa158015611032573d6000803e3d6000fd5b5050604051601f1901519150506001600160a01b03811661105e57506000925060019150829050611068565b9250600091508190505b9450945094915050565b60008260038111156110865761108661147d565b0361108f575050565b60018260038111156110a3576110a361147d565b036110c15760405163f645eedf60e01b815260040160405180910390fd5b60028260038111156110d5576110d561147d565b036110f65760405163fce698f760e01b815260048101829052602401610691565b600382600381111561110a5761110a61147d565b03610b8b576040516335e2f38360e21b815260048101829052602401610691565b606060006111388361116a565b604080516020808252818301909252919250600091906020820181803683375050509182525060208101929092525090565b600060ff8216601f81111561041857604051632cd44ac360e21b815260040160405180910390fd5b6000815180845260005b818110156111b85760208185018101518683018201520161119c565b506000602082860101526020601f19601f83011685010191505092915050565b6020815260006111eb6020830184611192565b9392505050565b80356001600160a01b038116811461120957600080fd5b919050565b6000806040838503121561122157600080fd5b61122a836111f2565b946020939093013593505050565b60008060006060848603121561124d57600080fd5b611256846111f2565b9250611264602085016111f2565b9150604084013590509250925092565b60006020828403121561128657600080fd5b6111eb826111f2565b60ff60f81b881681526000602060e0818401526112af60e084018a611192565b83810360408501526112c1818a611192565b606085018990526001600160a01b038816608086015260a0850187905284810360c0860152855180825283870192509083019060005b81811015611313578351835292840192918401916001016112f7565b50909c9b505050505050505050505050565b6080815260006113386080830187611192565b828103602084015261134a8187611192565b6040840195909552505090151560609091015292915050565b600080600080600080600060e0888a03121561137e57600080fd5b611387886111f2565b9650611395602089016111f2565b95506040880135945060608801359350608088013560ff811681146113b957600080fd5b9699959850939692959460a0840135945060c09093013592915050565b600080604083850312156113e957600080fd5b6113f2836111f2565b9150611400602084016111f2565b90509250929050565b60006020828403121561141b57600080fd5b5035919050565b600181811c9082168061143657607f821691505b60208210810361145657634e487b7160e01b600052602260045260246000fd5b50919050565b8082018082111561041857634e487b7160e01b600052601160045260246000fd5b634e487b7160e01b600052602160045260246000fdfea264697066735822122066fa74c3aefd9e58e53f723a3779eb1a82c2f36b37915591102c3592bbb2400b64736f6c634300081400335c213701d8e5fe1faad1dc955ae7c52dd755870a3fa3e09e929291b4936897c0a2646970667358221220ebb03e957d4e1625482d62904afcf73aae1c0a4579e13e6aa67b0be14ebcde7f64736f6c63430008140033",
  "linkReferences": {},
  "deployedLinkReferences": {}
}